{
  "contractName": "Elections",
  "abi": [
    {
      "inputs": [
        {
          "name": "superChairpersonAddress",
          "type": "address"
        }
      ],
      "payable": false,
      "stateMutability": "nonpayable",
      "type": "constructor",
      "signature": "constructor"
    },
    {
      "constant": true,
      "inputs": [],
      "name": "getSuperChairperson",
      "outputs": [
        {
          "name": "",
          "type": "address"
        }
      ],
      "payable": false,
      "stateMutability": "view",
      "type": "function",
      "signature": "0xee9b72eb"
    },
    {
      "constant": false,
      "inputs": [
        {
          "name": "superChairPersonNew",
          "type": "address"
        }
      ],
      "name": "setSuperChairperson",
      "outputs": [],
      "payable": false,
      "stateMutability": "nonpayable",
      "type": "function",
      "signature": "0x0732aa64"
    },
    {
      "constant": true,
      "inputs": [],
      "name": "getChairpersons",
      "outputs": [
        {
          "name": "",
          "type": "address[]"
        }
      ],
      "payable": false,
      "stateMutability": "view",
      "type": "function",
      "signature": "0xc214412a"
    },
    {
      "constant": false,
      "inputs": [
        {
          "name": "old",
          "type": "address"
        },
        {
          "name": "newAdd",
          "type": "address"
        }
      ],
      "name": "updateChairPerson",
      "outputs": [],
      "payable": false,
      "stateMutability": "nonpayable",
      "type": "function",
      "signature": "0x592e5a77"
    },
    {
      "constant": false,
      "inputs": [
        {
          "name": "chairpersonAddress",
          "type": "address"
        }
      ],
      "name": "removeChairperson",
      "outputs": [],
      "payable": false,
      "stateMutability": "nonpayable",
      "type": "function",
      "signature": "0x0dd940b4"
    },
    {
      "constant": false,
      "inputs": [
        {
          "name": "id",
          "type": "uint256"
        }
      ],
      "name": "addParty",
      "outputs": [],
      "payable": false,
      "stateMutability": "nonpayable",
      "type": "function",
      "signature": "0x3c399f8a"
    },
    {
      "constant": false,
      "inputs": [
        {
          "name": "id",
          "type": "uint256"
        },
        {
          "name": "newID",
          "type": "uint256"
        }
      ],
      "name": "updateParty",
      "outputs": [],
      "payable": false,
      "stateMutability": "nonpayable",
      "type": "function",
      "signature": "0xf360fd1d"
    },
    {
      "constant": true,
      "inputs": [],
      "name": "getParties",
      "outputs": [
        {
          "name": "",
          "type": "uint256[]"
        }
      ],
      "payable": false,
      "stateMutability": "view",
      "type": "function",
      "signature": "0xa8311aa8"
    },
    {
      "constant": false,
      "inputs": [
        {
          "name": "id",
          "type": "uint256"
        }
      ],
      "name": "removeParty",
      "outputs": [],
      "payable": false,
      "stateMutability": "nonpayable",
      "type": "function",
      "signature": "0x1c99d341"
    },
    {
      "constant": true,
      "inputs": [],
      "name": "getNumOfParties",
      "outputs": [
        {
          "name": "",
          "type": "uint256"
        }
      ],
      "payable": false,
      "stateMutability": "view",
      "type": "function",
      "signature": "0xa38ca972"
    },
    {
      "constant": true,
      "inputs": [
        {
          "name": "id",
          "type": "uint256"
        },
        {
          "name": "campaignAddr",
          "type": "address"
        }
      ],
      "name": "getPartyVotesByCampaign",
      "outputs": [
        {
          "name": "",
          "type": "uint256"
        }
      ],
      "payable": false,
      "stateMutability": "view",
      "type": "function",
      "signature": "0xf6cfcb57"
    },
    {
      "constant": true,
      "inputs": [
        {
          "name": "id",
          "type": "uint256"
        }
      ],
      "name": "getPartyVotes",
      "outputs": [
        {
          "name": "",
          "type": "uint256"
        }
      ],
      "payable": false,
      "stateMutability": "view",
      "type": "function",
      "signature": "0x2acf6304"
    },
    {
      "constant": true,
      "inputs": [
        {
          "name": "id",
          "type": "uint256"
        },
        {
          "name": "campaignAddr",
          "type": "address"
        }
      ],
      "name": "getPartyCandidatesByCampaign",
      "outputs": [
        {
          "name": "",
          "type": "uint256"
        }
      ],
      "payable": false,
      "stateMutability": "view",
      "type": "function",
      "signature": "0xa8ff96b8"
    },
    {
      "constant": true,
      "inputs": [
        {
          "name": "id",
          "type": "uint256"
        }
      ],
      "name": "getPartyCandidatesCount",
      "outputs": [
        {
          "name": "",
          "type": "uint256"
        }
      ],
      "payable": false,
      "stateMutability": "view",
      "type": "function",
      "signature": "0xb567b191"
    },
    {
      "constant": true,
      "inputs": [
        {
          "name": "id",
          "type": "uint256"
        }
      ],
      "name": "getPartyCandidates",
      "outputs": [
        {
          "name": "",
          "type": "uint256[]"
        }
      ],
      "payable": false,
      "stateMutability": "view",
      "type": "function",
      "signature": "0xd2babd0c"
    },
    {
      "constant": false,
      "inputs": [
        {
          "name": "chairperson",
          "type": "address"
        }
      ],
      "name": "crateElectionCampaign",
      "outputs": [
        {
          "name": "",
          "type": "address"
        }
      ],
      "payable": false,
      "stateMutability": "nonpayable",
      "type": "function",
      "signature": "0xb2ed0588"
    },
    {
      "constant": true,
      "inputs": [],
      "name": "getElectionCampaigns",
      "outputs": [
        {
          "name": "",
          "type": "address[]"
        }
      ],
      "payable": false,
      "stateMutability": "view",
      "type": "function",
      "signature": "0xcb2e6b7e"
    },
    {
      "constant": false,
      "inputs": [
        {
          "name": "adr",
          "type": "address"
        }
      ],
      "name": "removeElectionCampaigns",
      "outputs": [],
      "payable": false,
      "stateMutability": "nonpayable",
      "type": "function",
      "signature": "0xc27e0b78"
    }
  ],
  "bytecode": "0x608060405234801561001057600080fd5b50604051602080614ae28339810180604052602081101561003057600080fd5b8101908080519060200190929190505050806000806101000a81548173ffffffffffffffffffffffffffffffffffffffff021916908373ffffffffffffffffffffffffffffffffffffffff16021790555050614a51806100916000396000f3fe6080604052600436106100fc576000357c0100000000000000000000000000000000000000000000000000000000900463ffffffff1680630732aa64146101015780630dd940b4146101525780631c99d341146101a35780632acf6304146101de5780633c399f8a1461022d578063592e5a7714610268578063a38ca972146102d9578063a8311aa814610304578063a8ff96b814610370578063b2ed0588146103df578063b567b19114610470578063c214412a146104bf578063c27e0b781461052b578063cb2e6b7e1461057c578063d2babd0c146105e8578063ee9b72eb14610678578063f360fd1d146106cf578063f6cfcb5714610714575b600080fd5b34801561010d57600080fd5b506101506004803603602081101561012457600080fd5b81019080803573ffffffffffffffffffffffffffffffffffffffff169060200190929190505050610783565b005b34801561015e57600080fd5b506101a16004803603602081101561017557600080fd5b81019080803573ffffffffffffffffffffffffffffffffffffffff16906020019092919050505061088a565b005b3480156101af57600080fd5b506101dc600480360360208110156101c657600080fd5b8101908080359060200190929190505050610af2565b005b3480156101ea57600080fd5b506102176004803603602081101561020157600080fd5b8101908080359060200190929190505050610d65565b6040518082815260200191505060405180910390f35b34801561023957600080fd5b506102666004803603602081101561025057600080fd5b8101908080359060200190929190505050610f38565b005b34801561027457600080fd5b506102d76004803603604081101561028b57600080fd5b81019080803573ffffffffffffffffffffffffffffffffffffffff169060200190929190803573ffffffffffffffffffffffffffffffffffffffff169060200190929190505050611083565b005b3480156102e557600080fd5b506102ee6111ba565b6040518082815260200191505060405180910390f35b34801561031057600080fd5b5061031961128b565b6040518080602001828103825283818151815260200191508051906020019060200280838360005b8381101561035c578082015181840152602081019050610341565b505050509050019250505060405180910390f35b34801561037c57600080fd5b506103c96004803603604081101561039357600080fd5b8101908080359060200190929190803573ffffffffffffffffffffffffffffffffffffffff1690602001909291905050506113a7565b6040518082815260200191505060405180910390f35b3480156103eb57600080fd5b5061042e6004803603602081101561040257600080fd5b81019080803573ffffffffffffffffffffffffffffffffffffffff1690602001909291905050506115bd565b604051808273ffffffffffffffffffffffffffffffffffffffff1673ffffffffffffffffffffffffffffffffffffffff16815260200191505060405180910390f35b34801561047c57600080fd5b506104a96004803603602081101561049357600080fd5b810190808035906020019092919050505061180d565b6040518082815260200191505060405180910390f35b3480156104cb57600080fd5b506104d4611a8c565b6040518080602001828103825283818151815260200191508051906020019060200280838360005b838110156105175780820151818401526020810190506104fc565b505050509050019250505060405180910390f35b34801561053757600080fd5b5061057a6004803603602081101561054e57600080fd5b81019080803573ffffffffffffffffffffffffffffffffffffffff169060200190929190505050611bde565b005b34801561058857600080fd5b50610591611e4a565b6040518080602001828103825283818151815260200191508051906020019060200280838360005b838110156105d45780820151818401526020810190506105b9565b505050509050019250505060405180910390f35b3480156105f457600080fd5b506106216004803603602081101561060b57600080fd5b8101908080359060200190929190505050611f9c565b6040518080602001828103825283818151815260200191508051906020019060200280838360005b83811015610664578082015181840152602081019050610649565b505050509050019250505060405180910390f35b34801561068457600080fd5b5061068d61235e565b604051808273ffffffffffffffffffffffffffffffffffffffff1673ffffffffffffffffffffffffffffffffffffffff16815260200191505060405180910390f35b3480156106db57600080fd5b50610712600480360360408110156106f257600080fd5b810190808035906020019092919080359060200190929190505050612387565b005b34801561072057600080fd5b5061076d6004803603604081101561073757600080fd5b8101908080359060200190929190803573ffffffffffffffffffffffffffffffffffffffff169060200190929190505050612552565b6040518082815260200191505060405180910390f35b6000809054906101000a900473ffffffffffffffffffffffffffffffffffffffff1673ffffffffffffffffffffffffffffffffffffffff163373ffffffffffffffffffffffffffffffffffffffff16141515610847576040517f08c379a00000000000000000000000000000000000000000000000000000000081526004018080602001828103825260168152602001807f53656e646572206e6f7420617574686f72697a65642e0000000000000000000081525060200191505060405180910390fd5b806000806101000a81548173ffffffffffffffffffffffffffffffffffffffff021916908373ffffffffffffffffffffffffffffffffffffffff16021790555050565b6000809054906101000a900473ffffffffffffffffffffffffffffffffffffffff1673ffffffffffffffffffffffffffffffffffffffff163373ffffffffffffffffffffffffffffffffffffffff1614151561094e576040517f08c379a00000000000000000000000000000000000000000000000000000000081526004018080602001828103825260168152602001807f53656e646572206e6f7420617574686f72697a65642e0000000000000000000081525060200191505060405180910390fd5b60008090505b600180549050811015610aee578173ffffffffffffffffffffffffffffffffffffffff1660018281548110151561098757fe5b9060005260206000200160009054906101000a900473ffffffffffffffffffffffffffffffffffffffff1673ffffffffffffffffffffffffffffffffffffffff161415610ae15760008190505b6001808054905003811015610a835760018082018154811015156109f457fe5b9060005260206000200160009054906101000a900473ffffffffffffffffffffffffffffffffffffffff16600182815481101515610a2e57fe5b9060005260206000200160006101000a81548173ffffffffffffffffffffffffffffffffffffffff021916908373ffffffffffffffffffffffffffffffffffffffff16021790555080806001019150506109d4565b50600180808054905003815481101515610a9957fe5b9060005260206000200160006101000a81549073ffffffffffffffffffffffffffffffffffffffff02191690556001805480919060019003610adb9190612768565b50610aee565b8080600101915050610954565b5050565b6000809054906101000a900473ffffffffffffffffffffffffffffffffffffffff1673ffffffffffffffffffffffffffffffffffffffff163373ffffffffffffffffffffffffffffffffffffffff16141515610bb6576040517f08c379a00000000000000000000000000000000000000000000000000000000081526004018080602001828103825260168152602001807f53656e646572206e6f7420617574686f72697a65642e0000000000000000000081525060200191505060405180910390fd5b806004600082815260200190815260200160002060010160009054906101000a900460ff161515610c4f576040517f08c379a00000000000000000000000000000000000000000000000000000000081526004018080602001828103825260168152602001807f506172747920646f6573206e6f74206578697374732e0000000000000000000081525060200191505060405180910390fd5b60008090505b600380549050811015610d2e5782600382815481101515610c7257fe5b90600052602060002001541415610d215760008190505b600160038054905003811015610ce057600360018201815481101515610cab57fe5b9060005260206000200154600382815481101515610cc557fe5b90600052602060002001819055508080600101915050610c89565b506003600160038054905003815481101515610cf857fe5b90600052602060002001600090556003805480919060019003610d1b9190612794565b50610d2e565b8080600101915050610c55565b50600460008381526020019081526020016000206000808201600090556001820160006101000a81549060ff021916905550505050565b60008060009054906101000a900473ffffffffffffffffffffffffffffffffffffffff1673ffffffffffffffffffffffffffffffffffffffff163373ffffffffffffffffffffffffffffffffffffffff16141515610e2b576040517f08c379a00000000000000000000000000000000000000000000000000000000081526004018080602001828103825260168152602001807f53656e646572206e6f7420617574686f72697a65642e0000000000000000000081525060200191505060405180910390fd5b816004600082815260200190815260200160002060010160009054906101000a900460ff161515610ec4576040517f08c379a00000000000000000000000000000000000000000000000000000000081526004018080602001828103825260168152602001807f506172747920646f6573206e6f74206578697374732e0000000000000000000081525060200191505060405180910390fd5b600080600090505b600280549050811015610f2d57610f1c85600283815481101515610eec57fe5b9060005260206000200160009054906101000a900473ffffffffffffffffffffffffffffffffffffffff16612552565b820191508080600101915050610ecc565b508092505050919050565b6000809054906101000a900473ffffffffffffffffffffffffffffffffffffffff1673ffffffffffffffffffffffffffffffffffffffff163373ffffffffffffffffffffffffffffffffffffffff16141515610ffc576040517f08c379a00000000000000000000000000000000000000000000000000000000081526004018080602001828103825260168152602001807f53656e646572206e6f7420617574686f72697a65642e0000000000000000000081525060200191505060405180910390fd5b604080519081016040528082815260200160011515815250600460008381526020019081526020016000206000820151816000015560208201518160010160006101000a81548160ff021916908315150217905550905050600381908060018154018082558091505090600182039060005260206000200160009091929091909150555050565b6000809054906101000a900473ffffffffffffffffffffffffffffffffffffffff1673ffffffffffffffffffffffffffffffffffffffff163373ffffffffffffffffffffffffffffffffffffffff16141515611147576040517f08c379a00000000000000000000000000000000000000000000000000000000081526004018080602001828103825260168152602001807f53656e646572206e6f7420617574686f72697a65642e0000000000000000000081525060200191505060405180910390fd5b60018190806001815401808255809150509060018203906000526020600020016000909192909190916101000a81548173ffffffffffffffffffffffffffffffffffffffff021916908373ffffffffffffffffffffffffffffffffffffffff160217905550506111b68261088a565b5050565b60008060009054906101000a900473ffffffffffffffffffffffffffffffffffffffff1673ffffffffffffffffffffffffffffffffffffffff163373ffffffffffffffffffffffffffffffffffffffff16141515611280576040517f08c379a00000000000000000000000000000000000000000000000000000000081526004018080602001828103825260168152602001807f53656e646572206e6f7420617574686f72697a65642e0000000000000000000081525060200191505060405180910390fd5b600380549050905090565b60606000809054906101000a900473ffffffffffffffffffffffffffffffffffffffff1673ffffffffffffffffffffffffffffffffffffffff163373ffffffffffffffffffffffffffffffffffffffff16141515611351576040517f08c379a00000000000000000000000000000000000000000000000000000000081526004018080602001828103825260168152602001807f53656e646572206e6f7420617574686f72697a65642e0000000000000000000081525060200191505060405180910390fd5b600380548060200260200160405190810160405280929190818152602001828054801561139d57602002820191906000526020600020905b815481526020019060010190808311611389575b5050505050905090565b60008060009054906101000a900473ffffffffffffffffffffffffffffffffffffffff1673ffffffffffffffffffffffffffffffffffffffff163373ffffffffffffffffffffffffffffffffffffffff1614151561146d576040517f08c379a00000000000000000000000000000000000000000000000000000000081526004018080602001828103825260168152602001807f53656e646572206e6f7420617574686f72697a65642e0000000000000000000081525060200191505060405180910390fd5b826004600082815260200190815260200160002060010160009054906101000a900460ff161515611506576040517f08c379a00000000000000000000000000000000000000000000000000000000081526004018080602001828103825260168152602001807f506172747920646f6573206e6f74206578697374732e0000000000000000000081525060200191505060405180910390fd5b60008390508073ffffffffffffffffffffffffffffffffffffffff1663c5372a48866040518263ffffffff167c01000000000000000000000000000000000000000000000000000000000281526004018082815260200191505060206040518083038186803b15801561157857600080fd5b505afa15801561158c573d6000803e3d6000fd5b505050506040513d60208110156115a257600080fd5b81019080805190602001909291905050509250505092915050565b60008060009054906101000a900473ffffffffffffffffffffffffffffffffffffffff1673ffffffffffffffffffffffffffffffffffffffff163373ffffffffffffffffffffffffffffffffffffffff16141515611683576040517f08c379a00000000000000000000000000000000000000000000000000000000081526004018080602001828103825260168152602001807f53656e646572206e6f7420617574686f72697a65642e0000000000000000000081525060200191505060405180910390fd5b60018290806001815401808255809150509060018203906000526020600020016000909192909190916101000a81548173ffffffffffffffffffffffffffffffffffffffff021916908373ffffffffffffffffffffffffffffffffffffffff160217905550506000826000809054906101000a900473ffffffffffffffffffffffffffffffffffffffff166117166127c0565b808373ffffffffffffffffffffffffffffffffffffffff1673ffffffffffffffffffffffffffffffffffffffff1681526020018273ffffffffffffffffffffffffffffffffffffffff1673ffffffffffffffffffffffffffffffffffffffff16815260200192505050604051809103906000f08015801561179b573d6000803e3d6000fd5b50905060028190806001815401808255809150509060018203906000526020600020016000909192909190916101000a81548173ffffffffffffffffffffffffffffffffffffffff021916908373ffffffffffffffffffffffffffffffffffffffff1602179055505080915050919050565b60008060009054906101000a900473ffffffffffffffffffffffffffffffffffffffff1673ffffffffffffffffffffffffffffffffffffffff163373ffffffffffffffffffffffffffffffffffffffff161415156118d3576040517f08c379a00000000000000000000000000000000000000000000000000000000081526004018080602001828103825260168152602001807f53656e646572206e6f7420617574686f72697a65642e0000000000000000000081525060200191505060405180910390fd5b816004600082815260200190815260200160002060010160009054906101000a900460ff16151561196c576040517f08c379a00000000000000000000000000000000000000000000000000000000081526004018080602001828103825260168152602001807f506172747920646f6573206e6f74206578697374732e0000000000000000000081525060200191505060405180910390fd5b600080600090505b600280549050811015611a8157600060028281548110151561199257fe5b9060005260206000200160009054906101000a900473ffffffffffffffffffffffffffffffffffffffff1673ffffffffffffffffffffffffffffffffffffffff1663c5372a48876040518263ffffffff167c01000000000000000000000000000000000000000000000000000000000281526004018082815260200191505060206040518083038186803b158015611a2957600080fd5b505afa158015611a3d573d6000803e3d6000fd5b505050506040513d6020811015611a5357600080fd5b8101908080519060200190929190505050141515611a745781806001019250505b8080600101915050611974565b508092505050919050565b60606000809054906101000a900473ffffffffffffffffffffffffffffffffffffffff1673ffffffffffffffffffffffffffffffffffffffff163373ffffffffffffffffffffffffffffffffffffffff16141515611b52576040517f08c379a00000000000000000000000000000000000000000000000000000000081526004018080602001828103825260168152602001807f53656e646572206e6f7420617574686f72697a65642e0000000000000000000081525060200191505060405180910390fd5b6001805480602002602001604051908101604052809291908181526020018280548015611bd457602002820191906000526020600020905b8160009054906101000a900473ffffffffffffffffffffffffffffffffffffffff1673ffffffffffffffffffffffffffffffffffffffff1681526020019060010190808311611b8a575b5050505050905090565b6000809054906101000a900473ffffffffffffffffffffffffffffffffffffffff1673ffffffffffffffffffffffffffffffffffffffff163373ffffffffffffffffffffffffffffffffffffffff16141515611ca2576040517f08c379a00000000000000000000000000000000000000000000000000000000081526004018080602001828103825260168152602001807f53656e646572206e6f7420617574686f72697a65642e0000000000000000000081525060200191505060405180910390fd5b60008090505b600280549050811015611e46578173ffffffffffffffffffffffffffffffffffffffff16600282815481101515611cdb57fe5b9060005260206000200160009054906101000a900473ffffffffffffffffffffffffffffffffffffffff1673ffffffffffffffffffffffffffffffffffffffff161415611e395760008190505b600160028054905003811015611dd957600260018201815481101515611d4a57fe5b9060005260206000200160009054906101000a900473ffffffffffffffffffffffffffffffffffffffff16600282815481101515611d8457fe5b9060005260206000200160006101000a81548173ffffffffffffffffffffffffffffffffffffffff021916908373ffffffffffffffffffffffffffffffffffffffff1602179055508080600101915050611d28565b506002600160028054905003815481101515611df157fe5b9060005260206000200160006101000a81549073ffffffffffffffffffffffffffffffffffffffff02191690556002805480919060019003611e339190612768565b50611e46565b8080600101915050611ca8565b5050565b60606000809054906101000a900473ffffffffffffffffffffffffffffffffffffffff1673ffffffffffffffffffffffffffffffffffffffff163373ffffffffffffffffffffffffffffffffffffffff16141515611f10576040517f08c379a00000000000000000000000000000000000000000000000000000000081526004018080602001828103825260168152602001807f53656e646572206e6f7420617574686f72697a65642e0000000000000000000081525060200191505060405180910390fd5b6002805480602002602001604051908101604052809291908181526020018280548015611f9257602002820191906000526020600020905b8160009054906101000a900473ffffffffffffffffffffffffffffffffffffffff1673ffffffffffffffffffffffffffffffffffffffff1681526020019060010190808311611f48575b5050505050905090565b60606000809054906101000a900473ffffffffffffffffffffffffffffffffffffffff1673ffffffffffffffffffffffffffffffffffffffff163373ffffffffffffffffffffffffffffffffffffffff16141515612062576040517f08c379a00000000000000000000000000000000000000000000000000000000081526004018080602001828103825260168152602001807f53656e646572206e6f7420617574686f72697a65642e0000000000000000000081525060200191505060405180910390fd5b816004600082815260200190815260200160002060010160009054906101000a900460ff1615156120fb576040517f08c379a00000000000000000000000000000000000000000000000000000000081526004018080602001828103825260168152602001807f506172747920646f6573206e6f74206578697374732e0000000000000000000081525060200191505060405180910390fd5b60006121068461180d565b90506060816040519080825280602002602001820160405280156121395781602001602082028038833980820191505090505b509050600080905060008090505b60028054905081101561235157600060028281548110151561216557fe5b9060005260206000200160009054906101000a900473ffffffffffffffffffffffffffffffffffffffff1673ffffffffffffffffffffffffffffffffffffffff1663c5372a48896040518263ffffffff167c01000000000000000000000000000000000000000000000000000000000281526004018082815260200191505060206040518083038186803b1580156121fc57600080fd5b505afa158015612210573d6000803e3d6000fd5b505050506040513d602081101561222657600080fd5b81019080805190602001909291905050501415156123445760028181548110151561224d57fe5b9060005260206000200160009054906101000a900473ffffffffffffffffffffffffffffffffffffffff1673ffffffffffffffffffffffffffffffffffffffff1663c5372a48886040518263ffffffff167c01000000000000000000000000000000000000000000000000000000000281526004018082815260200191505060206040518083038186803b1580156122e457600080fd5b505afa1580156122f8573d6000803e3d6000fd5b505050506040513d602081101561230e57600080fd5b8101908080519060200190929190505050838381518110151561232d57fe5b906020019060200201818152505081806001019250505b8080600101915050612147565b5081945050505050919050565b60008060009054906101000a900473ffffffffffffffffffffffffffffffffffffffff16905090565b6000809054906101000a900473ffffffffffffffffffffffffffffffffffffffff1673ffffffffffffffffffffffffffffffffffffffff163373ffffffffffffffffffffffffffffffffffffffff1614151561244b576040517f08c379a00000000000000000000000000000000000000000000000000000000081526004018080602001828103825260168152602001807f53656e646572206e6f7420617574686f72697a65642e0000000000000000000081525060200191505060405180910390fd5b816004600082815260200190815260200160002060010160009054906101000a900460ff1615156124e4576040517f08c379a00000000000000000000000000000000000000000000000000000000081526004018080602001828103825260168152602001807f506172747920646f6573206e6f74206578697374732e0000000000000000000081525060200191505060405180910390fd5b6004600084815260200190815260200160002060046000848152602001908152602001600020600082015481600001556001820160009054906101000a900460ff168160010160006101000a81548160ff02191690831515021790555090505061254d83610af2565b505050565b60008060009054906101000a900473ffffffffffffffffffffffffffffffffffffffff1673ffffffffffffffffffffffffffffffffffffffff163373ffffffffffffffffffffffffffffffffffffffff16141515612618576040517f08c379a00000000000000000000000000000000000000000000000000000000081526004018080602001828103825260168152602001807f53656e646572206e6f7420617574686f72697a65642e0000000000000000000081525060200191505060405180910390fd5b826004600082815260200190815260200160002060010160009054906101000a900460ff1615156126b1576040517f08c379a00000000000000000000000000000000000000000000000000000000081526004018080602001828103825260168152602001807f506172747920646f6573206e6f74206578697374732e0000000000000000000081525060200191505060405180910390fd5b60008390508073ffffffffffffffffffffffffffffffffffffffff16632acf6304866040518263ffffffff167c01000000000000000000000000000000000000000000000000000000000281526004018082815260200191505060206040518083038186803b15801561272357600080fd5b505afa158015612737573d6000803e3d6000fd5b505050506040513d602081101561274d57600080fd5b81019080805190602001909291905050509250505092915050565b81548183558181111561278f5781836000526020600020918201910161278e91906127d0565b5b505050565b8154818355818111156127bb578183600052602060002091820191016127ba91906127d0565b5b505050565b604051612230806127f683390190565b6127f291905b808211156127ee5760008160009055506001016127d6565b5090565b9056fe608060405234801561001057600080fd5b506040516040806122308339810180604052604081101561003057600080fd5b810190808051906020019092919080519060200190929190505050816000806101000a81548173ffffffffffffffffffffffffffffffffffffffff021916908373ffffffffffffffffffffffffffffffffffffffff16021790555080600160006101000a81548173ffffffffffffffffffffffffffffffffffffffff021916908373ffffffffffffffffffffffffffffffffffffffff1602179055505050612153806100dd6000396000f3fe608060405260043610610107576000357c0100000000000000000000000000000000000000000000000000000000900463ffffffff16806306a49fce1461010c57806309e9d7e2146101785780632acf6304146101b35780633477ee2e14610202578063456645a71461026a5780635a55c1f0146102b957806365fc783c146103085780637d80c38e14610333578063866163c01461038a57806393f3bc61146103d9578063b384abef1461041e578063c4868f8814610463578063c5372a48146104b4578063c678ab2714610503578063da58c7d91461055d578063dd7ada33146105be578063dff0a88014610603578063e8685ba114610648578063ee9b72eb14610673575b600080fd5b34801561011857600080fd5b506101216106ca565b6040518080602001828103825283818151815260200191508051906020019060200280838360005b83811015610164578082015181840152602081019050610149565b505050509050019250505060405180910390f35b34801561018457600080fd5b506101b16004803603602081101561019b57600080fd5b810190808035906020019092919050505061083e565b005b3480156101bf57600080fd5b506101ec600480360360208110156101d657600080fd5b8101908080359060200190929190505050610b19565b6040518082815260200191505060405180910390f35b34801561020e57600080fd5b5061023b6004803603602081101561022557600080fd5b8101908080359060200190929190505050610ce6565b604051808581526020018481526020018381526020018215151515815260200194505050505060405180910390f35b34801561027657600080fd5b506102a36004803603602081101561028d57600080fd5b8101908080359060200190929190505050610d23565b6040518082815260200191505060405180910390f35b3480156102c557600080fd5b506102f2600480360360208110156102dc57600080fd5b8101908080359060200190929190505050610ef9565b6040518082815260200191505060405180910390f35b34801561031457600080fd5b5061031d610fb3565b6040518082815260200191505060405180910390f35b34801561033f57600080fd5b506103486110d9565b604051808273ffffffffffffffffffffffffffffffffffffffff1673ffffffffffffffffffffffffffffffffffffffff16815260200191505060405180910390f35b34801561039657600080fd5b506103c3600480360360208110156103ad57600080fd5b8101908080359060200190929190505050611102565b6040518082815260200191505060405180910390f35b3480156103e557600080fd5b5061041c600480360360408110156103fc57600080fd5b8101908080359060200190929190803590602001909291905050506112d8565b005b34801561042a57600080fd5b506104616004803603604081101561044157600080fd5b81019080803590602001909291908035906020019092919050505061153b565b005b34801561046f57600080fd5b506104b26004803603602081101561048657600080fd5b81019080803573ffffffffffffffffffffffffffffffffffffffff16906020019092919050505061182f565b005b3480156104c057600080fd5b506104ed600480360360208110156104d757600080fd5b810190808035906020019092919050505061198e565b6040518082815260200191505060405180910390f35b34801561050f57600080fd5b5061053c6004803603602081101561052657600080fd5b8101908080359060200190929190505050611afd565b60405180838152602001821515151581526020019250505060405180910390f35b34801561056957600080fd5b506105966004803603602081101561058057600080fd5b8101908080359060200190929190505050611b2e565b6040518084815260200183815260200182151515158152602001935050505060405180910390f35b3480156105ca57600080fd5b50610601600480360360408110156105e157600080fd5b810190808035906020019092919080359060200190929190505050611b65565b005b34801561060f57600080fd5b506106466004803603604081101561062657600080fd5b810190808035906020019092919080359060200190929190505050611d3a565b005b34801561065457600080fd5b5061065d611f83565b6040518082815260200191505060405180910390f35b34801561067f57600080fd5b506106886120ac565b604051808273ffffffffffffffffffffffffffffffffffffffff1673ffffffffffffffffffffffffffffffffffffffff16815260200191505060405180910390f35b60606000809054906101000a900473ffffffffffffffffffffffffffffffffffffffff1673ffffffffffffffffffffffffffffffffffffffff163373ffffffffffffffffffffffffffffffffffffffff1614806107745750600160009054906101000a900473ffffffffffffffffffffffffffffffffffffffff1673ffffffffffffffffffffffffffffffffffffffff163373ffffffffffffffffffffffffffffffffffffffff16145b15156107e8576040517f08c379a00000000000000000000000000000000000000000000000000000000081526004018080602001828103825260168152602001807f53656e646572206e6f7420617574686f72697a65642e0000000000000000000081525060200191505060405180910390fd5b600380548060200260200160405190810160405280929190818152602001828054801561083457602002820191906000526020600020905b815481526020019060010190808311610820575b5050505050905090565b6000809054906101000a900473ffffffffffffffffffffffffffffffffffffffff1673ffffffffffffffffffffffffffffffffffffffff163373ffffffffffffffffffffffffffffffffffffffff1614806108e65750600160009054906101000a900473ffffffffffffffffffffffffffffffffffffffff1673ffffffffffffffffffffffffffffffffffffffff163373ffffffffffffffffffffffffffffffffffffffff16145b151561095a576040517f08c379a00000000000000000000000000000000000000000000000000000000081526004018080602001828103825260168152602001807f53656e646572206e6f7420617574686f72697a65642e0000000000000000000081525060200191505060405180910390fd5b806004600082815260200190815260200160002060030160009054906101000a900460ff1615156109f3576040517f08c379a00000000000000000000000000000000000000000000000000000000081526004018080602001828103825260198152602001807f43616e64696461746520646f6573206e6f742065786973742e0000000000000081525060200191505060405180910390fd5b60008090505b600380549050811015610b145782600382815481101515610a1657fe5b90600052602060002001541415610ac55760008190505b600160038054905003811015610a8457600360018201815481101515610a4f57fe5b9060005260206000200154600382815481101515610a6957fe5b90600052602060002001819055508080600101915050610a2d565b506003600160038054905003815481101515610a9c57fe5b90600052602060002001600090556003805480919060019003610abf91906120d6565b50610b14565b60046000848152602001908152602001600020600080820160009055600182016000905560028201600090556003820160006101000a81549060ff0219169055505080806001019150506109f9565b505050565b60008060009054906101000a900473ffffffffffffffffffffffffffffffffffffffff1673ffffffffffffffffffffffffffffffffffffffff163373ffffffffffffffffffffffffffffffffffffffff161480610bc35750600160009054906101000a900473ffffffffffffffffffffffffffffffffffffffff1673ffffffffffffffffffffffffffffffffffffffff163373ffffffffffffffffffffffffffffffffffffffff16145b1515610c37576040517f08c379a00000000000000000000000000000000000000000000000000000000081526004018080602001828103825260168152602001807f53656e646572206e6f7420617574686f72697a65642e0000000000000000000081525060200191505060405180910390fd5b6006600083815260200190815260200160002060010160009054906101000a900460ff1615610cdc57600460006006600085815260200190815260200160002060000154815260200190815260200160002060030160009054906101000a900460ff1615610cd3576004600060066000858152602001908152602001600020600001548152602001908152602001600020600201549050610ce1565b60009050610ce1565b600090505b919050565b60046020528060005260406000206000915090508060000154908060010154908060020154908060030160009054906101000a900460ff16905084565b60008060009054906101000a900473ffffffffffffffffffffffffffffffffffffffff1673ffffffffffffffffffffffffffffffffffffffff163373ffffffffffffffffffffffffffffffffffffffff161480610dcd5750600160009054906101000a900473ffffffffffffffffffffffffffffffffffffffff1673ffffffffffffffffffffffffffffffffffffffff163373ffffffffffffffffffffffffffffffffffffffff16145b1515610e41576040517f08c379a00000000000000000000000000000000000000000000000000000000081526004018080602001828103825260168152602001807f53656e646572206e6f7420617574686f72697a65642e0000000000000000000081525060200191505060405180910390fd5b816004600082815260200190815260200160002060030160009054906101000a900460ff161515610eda576040517f08c379a00000000000000000000000000000000000000000000000000000000081526004018080602001828103825260198152602001807f43616e64696461746520646f6573206e6f742065786973742e0000000000000081525060200191505060405180910390fd5b6004600084815260200190815260200160002060010154915050919050565b6000816005600082815260200190815260200160002060020160009054906101000a900460ff161515610f94576040517f08c379a00000000000000000000000000000000000000000000000000000000081526004018080602001828103825260148152602001807f566f74657220646f6573206e6f7420766f74656400000000000000000000000081525060200191505060405180910390fd5b6005600084815260200190815260200160002060010154915050919050565b60008060009054906101000a900473ffffffffffffffffffffffffffffffffffffffff1673ffffffffffffffffffffffffffffffffffffffff163373ffffffffffffffffffffffffffffffffffffffff16148061105d5750600160009054906101000a900473ffffffffffffffffffffffffffffffffffffffff1673ffffffffffffffffffffffffffffffffffffffff163373ffffffffffffffffffffffffffffffffffffffff16145b15156110d1576040517f08c379a00000000000000000000000000000000000000000000000000000000081526004018080602001828103825260168152602001807f53656e646572206e6f7420617574686f72697a65642e0000000000000000000081525060200191505060405180910390fd5b600254905090565b60008060009054906101000a900473ffffffffffffffffffffffffffffffffffffffff16905090565b60008060009054906101000a900473ffffffffffffffffffffffffffffffffffffffff1673ffffffffffffffffffffffffffffffffffffffff163373ffffffffffffffffffffffffffffffffffffffff1614806111ac5750600160009054906101000a900473ffffffffffffffffffffffffffffffffffffffff1673ffffffffffffffffffffffffffffffffffffffff163373ffffffffffffffffffffffffffffffffffffffff16145b1515611220576040517f08c379a00000000000000000000000000000000000000000000000000000000081526004018080602001828103825260168152602001807f53656e646572206e6f7420617574686f72697a65642e0000000000000000000081525060200191505060405180910390fd5b816004600082815260200190815260200160002060030160009054906101000a900460ff1615156112b9576040517f08c379a00000000000000000000000000000000000000000000000000000000081526004018080602001828103825260198152602001807f43616e64696461746520646f6573206e6f742065786973742e0000000000000081525060200191505060405180910390fd5b6004600084815260200190815260200160002060020154915050919050565b6000809054906101000a900473ffffffffffffffffffffffffffffffffffffffff1673ffffffffffffffffffffffffffffffffffffffff163373ffffffffffffffffffffffffffffffffffffffff1614806113805750600160009054906101000a900473ffffffffffffffffffffffffffffffffffffffff1673ffffffffffffffffffffffffffffffffffffffff163373ffffffffffffffffffffffffffffffffffffffff16145b15156113f4576040517f08c379a00000000000000000000000000000000000000000000000000000000081526004018080602001828103825260168152602001807f53656e646572206e6f7420617574686f72697a65642e0000000000000000000081525060200191505060405180910390fd5b816004600082815260200190815260200160002060030160009054906101000a900460ff16151561148d576040517f08c379a00000000000000000000000000000000000000000000000000000000081526004018080602001828103825260198152602001807f43616e64696461746520646f6573206e6f742065786973742e0000000000000081525060200191505060405180910390fd5b60046000848152602001908152602001600020600460008481526020019081526020016000206000820154816000015560018201548160010155600282015481600201556003820160009054906101000a900460ff168160030160006101000a81548160ff02191690831515021790555090505060038290806001815401808255809150509060018203906000526020600020016000909192909190915055506115368361083e565b505050565b6000809054906101000a900473ffffffffffffffffffffffffffffffffffffffff1673ffffffffffffffffffffffffffffffffffffffff163373ffffffffffffffffffffffffffffffffffffffff1614806115e35750600160009054906101000a900473ffffffffffffffffffffffffffffffffffffffff1673ffffffffffffffffffffffffffffffffffffffff163373ffffffffffffffffffffffffffffffffffffffff16145b1515611657576040517f08c379a00000000000000000000000000000000000000000000000000000000081526004018080602001828103825260168152602001807f53656e646572206e6f7420617574686f72697a65642e0000000000000000000081525060200191505060405180910390fd5b806004600082815260200190815260200160002060030160009054906101000a900460ff1615156116f0576040517f08c379a00000000000000000000000000000000000000000000000000000000081526004018080602001828103825260198152602001807f43616e64696461746520646f6573206e6f742065786973742e0000000000000081525060200191505060405180910390fd5b6005600084815260200190815260200160002060020160009054906101000a900460ff16151515611789576040517f08c379a00000000000000000000000000000000000000000000000000000000081526004018080602001828103825260138152602001807f566f74657220616c726561647920766f7465640000000000000000000000000081525060200191505060405180910390fd5b6060604051908101604052808481526020018381526020016001151581525060056000858152602001908152602001600020600082015181600001556020820151816001015560408201518160020160006101000a81548160ff0219169083151502179055509050506004600083815260200190815260200160002060020160008154809291906001019190505550600260008154809291906001019190505550505050565b6000809054906101000a900473ffffffffffffffffffffffffffffffffffffffff1673ffffffffffffffffffffffffffffffffffffffff163373ffffffffffffffffffffffffffffffffffffffff1614806118d75750600160009054906101000a900473ffffffffffffffffffffffffffffffffffffffff1673ffffffffffffffffffffffffffffffffffffffff163373ffffffffffffffffffffffffffffffffffffffff16145b151561194b576040517f08c379a00000000000000000000000000000000000000000000000000000000081526004018080602001828103825260168152602001807f53656e646572206e6f7420617574686f72697a65642e0000000000000000000081525060200191505060405180910390fd5b806000806101000a81548173ffffffffffffffffffffffffffffffffffffffff021916908373ffffffffffffffffffffffffffffffffffffffff16021790555050565b60008060009054906101000a900473ffffffffffffffffffffffffffffffffffffffff1673ffffffffffffffffffffffffffffffffffffffff163373ffffffffffffffffffffffffffffffffffffffff161480611a385750600160009054906101000a900473ffffffffffffffffffffffffffffffffffffffff1673ffffffffffffffffffffffffffffffffffffffff163373ffffffffffffffffffffffffffffffffffffffff16145b1515611aac576040517f08c379a00000000000000000000000000000000000000000000000000000000081526004018080602001828103825260168152602001807f53656e646572206e6f7420617574686f72697a65642e0000000000000000000081525060200191505060405180910390fd5b6006600083815260200190815260200160002060010160009054906101000a900460ff1615611af35760066000838152602001908152602001600020600001549050611af8565b600090505b919050565b60066020528060005260406000206000915090508060000154908060010160009054906101000a900460ff16905082565b60056020528060005260406000206000915090508060000154908060010154908060020160009054906101000a900460ff16905083565b6000809054906101000a900473ffffffffffffffffffffffffffffffffffffffff1673ffffffffffffffffffffffffffffffffffffffff163373ffffffffffffffffffffffffffffffffffffffff161480611c0d5750600160009054906101000a900473ffffffffffffffffffffffffffffffffffffffff1673ffffffffffffffffffffffffffffffffffffffff163373ffffffffffffffffffffffffffffffffffffffff16145b1515611c81576040517f08c379a00000000000000000000000000000000000000000000000000000000081526004018080602001828103825260168152602001807f53656e646572206e6f7420617574686f72697a65642e0000000000000000000081525060200191505060405180910390fd5b816004600082815260200190815260200160002060030160009054906101000a900460ff161515611d1a576040517f08c379a00000000000000000000000000000000000000000000000000000000081526004018080602001828103825260198152602001807f43616e64696461746520646f6573206e6f742065786973742e0000000000000081525060200191505060405180910390fd5b816004600085815260200190815260200160002060010181905550505050565b6000809054906101000a900473ffffffffffffffffffffffffffffffffffffffff1673ffffffffffffffffffffffffffffffffffffffff163373ffffffffffffffffffffffffffffffffffffffff161480611de25750600160009054906101000a900473ffffffffffffffffffffffffffffffffffffffff1673ffffffffffffffffffffffffffffffffffffffff163373ffffffffffffffffffffffffffffffffffffffff16145b1515611e56576040517f08c379a00000000000000000000000000000000000000000000000000000000081526004018080602001828103825260168152602001807f53656e646572206e6f7420617574686f72697a65642e0000000000000000000081525060200191505060405180910390fd5b6004600083815260200190815260200160002060030160009054906101000a900460ff161515611f7f5760806040519081016040528083815260200182815260200160008152602001600115158152506004600084815260200190815260200160002060008201518160000155602082015181600101556040820151816002015560608201518160030160006101000a81548160ff0219169083151502179055509050506003829080600181540180825580915050906001820390600052602060002001600090919290919091505550604080519081016040528083815260200160011515815250600660008381526020019081526020016000206000820151816000015560208201518160010160006101000a81548160ff0219169083151502179055509050505b5050565b60008060009054906101000a900473ffffffffffffffffffffffffffffffffffffffff1673ffffffffffffffffffffffffffffffffffffffff163373ffffffffffffffffffffffffffffffffffffffff16148061202d5750600160009054906101000a900473ffffffffffffffffffffffffffffffffffffffff1673ffffffffffffffffffffffffffffffffffffffff163373ffffffffffffffffffffffffffffffffffffffff16145b15156120a1576040517f08c379a00000000000000000000000000000000000000000000000000000000081526004018080602001828103825260168152602001807f53656e646572206e6f7420617574686f72697a65642e0000000000000000000081525060200191505060405180910390fd5b600380549050905090565b6000600160009054906101000a900473ffffffffffffffffffffffffffffffffffffffff16905090565b8154818355818111156120fd578183600052602060002091820191016120fc9190612102565b5b505050565b61212491905b80821115612120576000816000905550600101612108565b5090565b9056fea165627a7a72305820e9668685c55260111c38be8877aedeac455464d793230d2e34420e6ad144b00e0029a165627a7a72305820aa5b6c642d98e240bdf807b909def0d8935003ccb1d28bd52723eee5086f03470029",
  "source": "pragma solidity >=0.4.22 <0.6.0;\n// Solidity Version 0.4.22 <0.6.0\n\n//   0xbc848c44a72D878aA935CccFe3e307c4e2DB0146 head\n//   0x3184b6541c82fAa56B9d2360E2953d89f1Db8d82 Chairperson\n// Election contract\ncontract Elections{\n\n    ///////////////////////////////////////////////////////////////////////////////////////\n\n    // Party Struct\n    struct Party{\n        uint id;\n        bool exists;\n    }\n\n    ////////////////////////////////////////////////////////////////////////////////////////\n\n    // Global variables\n    address superChairPerson;\n    address[] chairpersons;\n\n    address[] campaigns;\n\n    uint[] partyIDs;\n    mapping(uint => Party) parties;\n\n    /////////////////////////////////////////////////////////////////////////////////////////\n\n    // Modifieres\n    modifier restricted(){\n        require(msg.sender == superChairPerson,\"Sender not authorized.\");\n        _;\n    }\n\n    modifier checkParty(uint id){\n        require(parties[id].exists,\"Party does not exists.\");\n        _;\n    }\n\n    ////////////////////////////////////////////////////////////////////////////////////////\n\n    // Constructor\n    constructor(address superChairpersonAddress) public {\n        superChairPerson = superChairpersonAddress;\n    }\n\n    //////////////////////////////////////////////////////////////////////////////////////////////\n\n    // SuperChairperson Queries (geter and setter)\n    function getSuperChairperson() public view returns(address) {\n        return superChairPerson;\n    }\n\n    function setSuperChairperson(address superChairPersonNew)public restricted{\n        superChairPerson = superChairPersonNew;\n    }\n\n\n    //////////////////////////////////////////////////////////////////////////////////////////////\n\n    // Chairperson Queries (geter and setter)\n    function getChairpersons() public view restricted returns(address[] memory) {\n        return chairpersons;\n    }\n\n    function updateChairPerson(address old,address newAdd)public restricted{\n        chairpersons.push(newAdd);\n        removeChairperson(old);\n    }\n\n    function removeChairperson(address chairpersonAddress)public restricted{\n        for (uint j =0;j<chairpersons.length;j++){\n            if(chairpersons[j] == chairpersonAddress){\n                for (uint i = j; i<chairpersons.length-1; i++){\n                    chairpersons[i] = chairpersons[i+1];\n                }\n                delete chairpersons[chairpersons.length-1];\n                chairpersons.length--;\n                break;\n            }\n        }\n    }\n\n    ////////////////////////////////////////////////////////////////////////////////////////\n\n    // Party Queries\n    function addParty(uint id) public restricted{\n        parties[id] = Party(id,true);\n        partyIDs.push(id);\n    }\n\n    function updateParty(uint id, uint newID)public restricted checkParty(id){\n        parties[newID] = parties[id];\n        removeParty(id);\n    }\n\n    function getParties()public view restricted returns(uint[] memory){\n        return (partyIDs);\n    }\n\n    function removeParty(uint id) public restricted checkParty(id){\n        for (uint j =0;j<partyIDs.length;j++){\n            if(partyIDs[j] == id){\n                for (uint i = j; i<partyIDs.length-1; i++){\n                    partyIDs[i] = partyIDs[i+1];\n                }\n                delete partyIDs[partyIDs.length-1];\n                partyIDs.length--;\n                break;\n            }\n        }\n        delete parties[id];\n    }\n\n    function getNumOfParties() public view restricted returns(uint) {\n        return partyIDs.length;\n    }\n\n    function getPartyVotesByCampaign(uint id,address campaignAddr)public view restricted checkParty(id)returns(uint){\n        ElectionCampaign campaign = ElectionCampaign(campaignAddr);\n        return (campaign.getPartyVotes(id));\n    }\n\n    function getPartyVotes(uint id)public restricted view checkParty(id) returns(uint){\n        uint votes;\n        for(uint i = 0; i<campaigns.length; i++){\n            votes += getPartyVotesByCampaign(id, campaigns[i]);\n        }\n        return votes;\n    }\n\n    function getPartyCandidatesByCampaign(uint id,address campaignAddr)public view restricted checkParty(id) returns(uint){\n        ElectionCampaign campaign = ElectionCampaign(campaignAddr);\n        return (campaign.getPartyCandidate(id));\n    }\n\n    function getPartyCandidatesCount(uint id)public view restricted checkParty(id) returns(uint){\n        uint count;\n        for(uint i = 0; i<campaigns.length; i++){\n            if(ElectionCampaign(campaigns[i]).getPartyCandidate(id) != 0)\n                count ++;\n        }\n        return (count);\n    }\n\n    function getPartyCandidates(uint id)public view restricted checkParty(id) returns(uint[] memory){\n        uint size = getPartyCandidatesCount(id);\n        uint[] memory ar = new uint[](size);\n        uint count = 0;\n        for(uint i = 0;i<campaigns.length;i++){\n            if(ElectionCampaign(campaigns[i]).getPartyCandidate(id) != 0){\n                ar[count] = ElectionCampaign(campaigns[i]).getPartyCandidate(id);\n                count++;\n            }\n        }\n        return ar;\n    }\n\n    ////////////////////////////////////////////////////////////////////////////////////////\n\n    // Campaign Queries\n    function crateElectionCampaign(address chairperson) public restricted returns(address){\n        chairpersons.push(chairperson);\n        ElectionCampaign campaign = new ElectionCampaign(chairperson,superChairPerson);\n        campaigns.push(address(campaign));\n        return (address(campaign));\n    }\n\n    function getElectionCampaigns() public restricted view returns(address[] memory){\n        return (campaigns);\n    }\n\n    function removeElectionCampaigns(address adr) public restricted{\n        for (uint j =0;j<campaigns.length;j++){\n            if(campaigns[j] == adr){\n                for (uint i = j; i<campaigns.length-1; i++){\n                    campaigns[i] = campaigns[i+1];\n                }\n                delete campaigns[campaigns.length-1];\n                campaigns.length--;\n                break;\n            }\n        }\n    }\n\n}\n\n////////////////////////////////////////////////////////////////////////////////////////\n\n// Election Campaign contract\ncontract ElectionCampaign{\n\n    ///////////////////////////////////////////////////////////////////////////////////////\n\n    // Candidate Stuct\n    struct Candidate{\n        uint id;\n        uint partyID;\n        uint votes;\n        bool exist;\n    }\n\n    ////////////////////////////////////////////////////////////////////////////////////////\n\n    //Voter Stuct\n    struct Voter {\n        uint id;\n        uint toCandidate;\n        bool voted;\n    }\n\n    ////////////////////////////////////////////////////////////////////////////////////////\n\n    // Hashmap Stuct\n    struct PartyMapping {\n        uint id;\n        bool exist;\n    }\n\n    ///////////////////////////////////////////////////////////////////////////////////////////\n\n    // Global variables\n\n    address chairperson;\n    address superChairperson;\n\n    uint votersCount;\n\n    uint[] candidateIDs;\n\n    mapping (uint => Candidate)public candidates;\n    mapping (uint => Voter)public voters;\n    mapping (uint => PartyMapping)public partyCandidates;\n\n    ///////////////////////////////////////////////////////////////////////////////////////////\n\n    // Modifieres\n    modifier restricted(){\n        require(msg.sender == chairperson || msg.sender == superChairperson,\"Sender not authorized.\");\n        _;\n    }\n\n    modifier checkCandidate(uint candidateID){\n        require(candidates[candidateID].exist,\"Candidate does not exist.\");\n        _;\n    }\n\n    modifier checkVoter(uint id){\n        require(voters[id].voted,\"Voter does not voted\");\n        _;\n    }\n\n    ////////////////////////////////////////////////////////////////////////////////////////////\n\n    // Constructor\n    constructor(address chairpersonAddress, address superChairpersonAddress) public {\n        chairperson = chairpersonAddress;\n        superChairperson = superChairpersonAddress;\n    }\n\n    //////////////////////////////////////////////////////////////////////////////////////////////\n\n    // SuperChairperson Queries\n    function getSuperChairperson() public view returns(address){\n        return superChairperson;\n    }\n\n    //////////////////////////////////////////////////////////////////////////////////////////////\n\n    // Chairperson Queries\n    function getChairperson() public view returns(address) {\n        return chairperson;\n    }\n\n    function setChairperson(address chairpersonNew)public restricted{\n        chairperson = chairpersonNew;\n    }\n\n    /////////////////////////////////////////////////////////////////////////////////////////////\n\n    // Candidate Queries\n    function addCandidate(uint id, uint partyID) public restricted{\n        if(!candidates[id].exist){\n            candidates[id] = Candidate(id,partyID,0,true);\n            candidateIDs.push(id);\n            partyCandidates[partyID] = PartyMapping(id,true);\n        }\n    }\n\n    function updateCandidate(uint id, uint newID) public restricted checkCandidate(id){\n        candidates[newID] = candidates[id];\n        candidateIDs.push(newID);\n        removeCandidate(id);\n    }\n\n    function getCandidates() public view restricted returns(uint[] memory){\n        return (candidateIDs);\n    }\n\n    function removeCandidate(uint id) public restricted checkCandidate(id){\n        for (uint j =0;j<candidateIDs.length;j++){\n            if(candidateIDs[j] == id){\n                for (uint i = j; i<candidateIDs.length-1; i++){\n                    candidateIDs[i] = candidateIDs[i+1];\n                }\n                delete candidateIDs[candidateIDs.length-1];\n                candidateIDs.length--;\n                break;\n            }\n            delete candidates[id];\n        }\n    }\n\n    function getCandidateParty(uint id)public view restricted checkCandidate(id) returns(uint){\n        return candidates[id].partyID;\n    }\n\n    function updateCandidateParty(uint id,uint partyID)public restricted checkCandidate(id){\n        candidates[id].partyID = partyID;\n    }\n\n    function getNumOfCandidates() public view restricted returns(uint) {\n        return candidateIDs.length;\n    }\n\n    function getCandidateVotes(uint id) public view restricted checkCandidate(id) returns(uint){\n        return (candidates[id].votes);\n    }\n\n    ///////////////////////////////////////////////////////////////////////////////////////////////\n\n    // Party Queries\n    function getPartyVotes(uint partyID)public view restricted returns(uint){\n        if(partyCandidates[partyID].exist){\n            if(candidates[partyCandidates[partyID].id].exist){\n                return (candidates[partyCandidates[partyID].id].votes);\n            }else return 0;\n        }else return 0;\n    }\n\n    function getPartyCandidate(uint partyID)public view restricted returns(uint){\n        if(partyCandidates[partyID].exist){\n            return partyCandidates[partyID].id;\n        }else{\n            return 0;\n        }\n    }\n\n    ///////////////////////////////////////////////////////////////////////////////////////////////\n\n    // Voter Queries\n    function getNumOfVoters() public view restricted returns(uint) {\n        return votersCount;\n    }\n\n    function getVote(uint id)public view checkVoter(id) returns(uint){\n        return (voters[id].toCandidate);\n    }\n\n    ////////////////////////////////////////////////////////////////////////////////////////////////\n\n    // Actual Vote Function\n    function vote(uint id, uint candidateID) public restricted checkCandidate(candidateID){\n        require(!voters[id].voted,\"Voter already voted\");\n        voters[id] = Voter(id,candidateID,true);\n        candidates[candidateID].votes++;\n        votersCount++;\n    }\n\n}",
  "sourcePath": "/Users/shri99/WebstormProjects/Smart-Elections_Solidity/contracts/Elections.sol",
  "compiler": {
    "name": "solc",
    "version": "0.5.0+commit.1d4f565a.Emscripten.clang"
  },
  "schemaVersion": "3.0.1",
  "updatedAt": "2019-01-15T17:21:59.244Z",
  "devdoc": {
    "methods": {}
  },
  "userdoc": {
    "methods": {
      "addParty(uint256)": {
        "notice": "/////////////////////////////////////////////////////////////////////////////////////"
      },
      "constructor": "/////////////////////////////////////////////////////////////////////////////////////",
      "crateElectionCampaign(address)": {
        "notice": "/////////////////////////////////////////////////////////////////////////////////////"
      },
      "getChairpersons()": {
        "notice": "///////////////////////////////////////////////////////////////////////////////////////////"
      },
      "getSuperChairperson()": {
        "notice": "///////////////////////////////////////////////////////////////////////////////////////////"
      }
    }
  }
}